{
  "_format": "hh-sol-artifact-1",
  "contractName": "TradeEntry",
  "sourceName": "contracts/TradeEntry.sol",
  "abi": [
    {
      "inputs": [],
      "stateMutability": "nonpayable",
      "type": "constructor"
    },
    {
      "inputs": [],
      "name": "AcceptionDeadlinePassed",
      "type": "error"
    },
    {
      "inputs": [],
      "name": "ECDSAInvalidSignature",
      "type": "error"
    },
    {
      "inputs": [
        {
          "internalType": "uint256",
          "name": "length",
          "type": "uint256"
        }
      ],
      "name": "ECDSAInvalidSignatureLength",
      "type": "error"
    },
    {
      "inputs": [
        {
          "internalType": "bytes32",
          "name": "s",
          "type": "bytes32"
        }
      ],
      "name": "ECDSAInvalidSignatureS",
      "type": "error"
    },
    {
      "inputs": [],
      "name": "InvalidChainlinkRoundId",
      "type": "error"
    },
    {
      "inputs": [],
      "name": "InvalidDataSource",
      "type": "error"
    },
    {
      "inputs": [],
      "name": "InvalidPythResponse",
      "type": "error"
    },
    {
      "inputs": [],
      "name": "InvalidShortString",
      "type": "error"
    },
    {
      "inputs": [],
      "name": "InvalidSignature",
      "type": "error"
    },
    {
      "inputs": [],
      "name": "LengthMismatch",
      "type": "error"
    },
    {
      "inputs": [],
      "name": "NotTradeAcceptor",
      "type": "error"
    },
    {
      "inputs": [],
      "name": "NotTradeInitiator",
      "type": "error"
    },
    {
      "inputs": [
        {
          "internalType": "address",
          "name": "owner",
          "type": "address"
        }
      ],
      "name": "OwnableInvalidOwner",
      "type": "error"
    },
    {
      "inputs": [
        {
          "internalType": "address",
          "name": "account",
          "type": "address"
        }
      ],
      "name": "OwnableUnauthorizedAccount",
      "type": "error"
    },
    {
      "inputs": [
        {
          "internalType": "int256",
          "name": "value",
          "type": "int256"
        }
      ],
      "name": "SafeCastOverflowedIntToUint",
      "type": "error"
    },
    {
      "inputs": [
        {
          "internalType": "uint8",
          "name": "bits",
          "type": "uint8"
        },
        {
          "internalType": "uint256",
          "name": "value",
          "type": "uint256"
        }
      ],
      "name": "SafeCastOverflowedUintDowncast",
      "type": "error"
    },
    {
      "inputs": [
        {
          "internalType": "address",
          "name": "token",
          "type": "address"
        }
      ],
      "name": "SafeERC20FailedOperation",
      "type": "error"
    },
    {
      "inputs": [
        {
          "internalType": "string",
          "name": "str",
          "type": "string"
        }
      ],
      "name": "StringTooLong",
      "type": "error"
    },
    {
      "inputs": [],
      "name": "TradeNotExpired",
      "type": "error"
    },
    {
      "inputs": [],
      "name": "UnavailableAssetOrDataSource",
      "type": "error"
    },
    {
      "inputs": [],
      "name": "WrongTradeStatus",
      "type": "error"
    },
    {
      "anonymous": false,
      "inputs": [],
      "name": "EIP712DomainChanged",
      "type": "event"
    },
    {
      "anonymous": false,
      "inputs": [
        {
          "indexed": true,
          "internalType": "address",
          "name": "previousOwner",
          "type": "address"
        },
        {
          "indexed": true,
          "internalType": "address",
          "name": "newOwner",
          "type": "address"
        }
      ],
      "name": "OwnershipTransferred",
      "type": "event"
    },
    {
      "anonymous": false,
      "inputs": [
        {
          "indexed": true,
          "internalType": "bytes32",
          "name": "tradeHash",
          "type": "bytes32"
        }
      ],
      "name": "TradeCancelled",
      "type": "event"
    },
    {
      "anonymous": false,
      "inputs": [
        {
          "indexed": true,
          "internalType": "bytes32",
          "name": "tradeHash",
          "type": "bytes32"
        },
        {
          "indexed": false,
          "internalType": "uint256",
          "name": "settlementPrice",
          "type": "uint256"
        },
        {
          "indexed": false,
          "internalType": "address",
          "name": "winner",
          "type": "address"
        },
        {
          "indexed": false,
          "internalType": "uint256",
          "name": "payoff",
          "type": "uint256"
        }
      ],
      "name": "TradeSettled",
      "type": "event"
    },
    {
      "anonymous": false,
      "inputs": [
        {
          "indexed": true,
          "internalType": "bytes32",
          "name": "tradeHash",
          "type": "bytes32"
        },
        {
          "components": [
            {
              "internalType": "address",
              "name": "depositAsset",
              "type": "address"
            },
            {
              "internalType": "address",
              "name": "initiator",
              "type": "address"
            },
            {
              "internalType": "uint256",
              "name": "initiatorAmount",
              "type": "uint256"
            },
            {
              "internalType": "address",
              "name": "acceptor",
              "type": "address"
            },
            {
              "internalType": "uint256",
              "name": "acceptorAmount",
              "type": "uint256"
            },
            {
              "internalType": "uint256",
              "name": "acceptionDeadline",
              "type": "uint256"
            },
            {
              "internalType": "uint256",
              "name": "expiry",
              "type": "uint256"
            },
            {
              "internalType": "uint32",
              "name": "observationAssetId",
              "type": "uint32"
            },
            {
              "internalType": "enum BasicTradeDirection",
              "name": "direction",
              "type": "uint8"
            },
            {
              "internalType": "uint256",
              "name": "price",
              "type": "uint256"
            },
            {
              "internalType": "uint8",
              "name": "dataSourceId",
              "type": "uint8"
            },
            {
              "internalType": "uint256",
              "name": "nonce",
              "type": "uint256"
            }
          ],
          "indexed": false,
          "internalType": "struct TradeParams",
          "name": "params",
          "type": "tuple"
        }
      ],
      "name": "TradeStarted",
      "type": "event"
    },
    {
      "inputs": [],
      "name": "TRADE_TYPEHASH",
      "outputs": [
        {
          "internalType": "bytes32",
          "name": "",
          "type": "bytes32"
        }
      ],
      "stateMutability": "view",
      "type": "function"
    },
    {
      "inputs": [
        {
          "internalType": "uint32",
          "name": "",
          "type": "uint32"
        },
        {
          "internalType": "uint8",
          "name": "",
          "type": "uint8"
        }
      ],
      "name": "assetDataSourceAllowed",
      "outputs": [
        {
          "internalType": "bool",
          "name": "",
          "type": "bool"
        }
      ],
      "stateMutability": "view",
      "type": "function"
    },
    {
      "inputs": [
        {
          "components": [
            {
              "internalType": "address",
              "name": "depositAsset",
              "type": "address"
            },
            {
              "internalType": "address",
              "name": "initiator",
              "type": "address"
            },
            {
              "internalType": "uint256",
              "name": "initiatorAmount",
              "type": "uint256"
            },
            {
              "internalType": "address",
              "name": "acceptor",
              "type": "address"
            },
            {
              "internalType": "uint256",
              "name": "acceptorAmount",
              "type": "uint256"
            },
            {
              "internalType": "uint256",
              "name": "acceptionDeadline",
              "type": "uint256"
            },
            {
              "internalType": "uint256",
              "name": "expiry",
              "type": "uint256"
            },
            {
              "internalType": "uint32",
              "name": "observationAssetId",
              "type": "uint32"
            },
            {
              "internalType": "enum BasicTradeDirection",
              "name": "direction",
              "type": "uint8"
            },
            {
              "internalType": "uint256",
              "name": "price",
              "type": "uint256"
            },
            {
              "internalType": "uint8",
              "name": "dataSourceId",
              "type": "uint8"
            },
            {
              "internalType": "uint256",
              "name": "nonce",
              "type": "uint256"
            }
          ],
          "internalType": "struct TradeParams",
          "name": "params",
          "type": "tuple"
        }
      ],
      "name": "cancelTrade",
      "outputs": [],
      "stateMutability": "nonpayable",
      "type": "function"
    },
    {
      "inputs": [
        {
          "internalType": "uint32",
          "name": "",
          "type": "uint32"
        }
      ],
      "name": "chainlinkAssetPriceFeeds",
      "outputs": [
        {
          "internalType": "address",
          "name": "",
          "type": "address"
        }
      ],
      "stateMutability": "view",
      "type": "function"
    },
    {
      "inputs": [
        {
          "internalType": "uint32[]",
          "name": "assetIds",
          "type": "uint32[]"
        },
        {
          "internalType": "address[]",
          "name": "feedAddresses",
          "type": "address[]"
        }
      ],
      "name": "configureChainlinkFeeds",
      "outputs": [],
      "stateMutability": "nonpayable",
      "type": "function"
    },
    {
      "inputs": [
        {
          "internalType": "uint32[]",
          "name": "assetIds",
          "type": "uint32[]"
        },
        {
          "internalType": "bytes32[]",
          "name": "feedIds",
          "type": "bytes32[]"
        }
      ],
      "name": "configurePythFeeds",
      "outputs": [],
      "stateMutability": "nonpayable",
      "type": "function"
    },
    {
      "inputs": [],
      "name": "eip712Domain",
      "outputs": [
        {
          "internalType": "bytes1",
          "name": "fields",
          "type": "bytes1"
        },
        {
          "internalType": "string",
          "name": "name",
          "type": "string"
        },
        {
          "internalType": "string",
          "name": "version",
          "type": "string"
        },
        {
          "internalType": "uint256",
          "name": "chainId",
          "type": "uint256"
        },
        {
          "internalType": "address",
          "name": "verifyingContract",
          "type": "address"
        },
        {
          "internalType": "bytes32",
          "name": "salt",
          "type": "bytes32"
        },
        {
          "internalType": "uint256[]",
          "name": "extensions",
          "type": "uint256[]"
        }
      ],
      "stateMutability": "view",
      "type": "function"
    },
    {
      "inputs": [],
      "name": "owner",
      "outputs": [
        {
          "internalType": "address",
          "name": "",
          "type": "address"
        }
      ],
      "stateMutability": "view",
      "type": "function"
    },
    {
      "inputs": [],
      "name": "pyth",
      "outputs": [
        {
          "internalType": "contract IPyth",
          "name": "",
          "type": "address"
        }
      ],
      "stateMutability": "view",
      "type": "function"
    },
    {
      "inputs": [
        {
          "internalType": "uint32",
          "name": "",
          "type": "uint32"
        }
      ],
      "name": "pythAssetFeedIds",
      "outputs": [
        {
          "internalType": "bytes32",
          "name": "",
          "type": "bytes32"
        }
      ],
      "stateMutability": "view",
      "type": "function"
    },
    {
      "inputs": [],
      "name": "renounceOwnership",
      "outputs": [],
      "stateMutability": "nonpayable",
      "type": "function"
    },
    {
      "inputs": [
        {
          "internalType": "uint32[]",
          "name": "assetIds",
          "type": "uint32[]"
        },
        {
          "internalType": "uint8",
          "name": "dataSourceId",
          "type": "uint8"
        },
        {
          "internalType": "bool",
          "name": "allowed",
          "type": "bool"
        }
      ],
      "name": "setAssetsDataSourceAllowed",
      "outputs": [],
      "stateMutability": "nonpayable",
      "type": "function"
    },
    {
      "inputs": [
        {
          "internalType": "contract IPyth",
          "name": "_pyth",
          "type": "address"
        }
      ],
      "name": "setPyth",
      "outputs": [],
      "stateMutability": "nonpayable",
      "type": "function"
    },
    {
      "inputs": [
        {
          "components": [
            {
              "internalType": "address",
              "name": "depositAsset",
              "type": "address"
            },
            {
              "internalType": "address",
              "name": "initiator",
              "type": "address"
            },
            {
              "internalType": "uint256",
              "name": "initiatorAmount",
              "type": "uint256"
            },
            {
              "internalType": "address",
              "name": "acceptor",
              "type": "address"
            },
            {
              "internalType": "uint256",
              "name": "acceptorAmount",
              "type": "uint256"
            },
            {
              "internalType": "uint256",
              "name": "acceptionDeadline",
              "type": "uint256"
            },
            {
              "internalType": "uint256",
              "name": "expiry",
              "type": "uint256"
            },
            {
              "internalType": "uint32",
              "name": "observationAssetId",
              "type": "uint32"
            },
            {
              "internalType": "enum BasicTradeDirection",
              "name": "direction",
              "type": "uint8"
            },
            {
              "internalType": "uint256",
              "name": "price",
              "type": "uint256"
            },
            {
              "internalType": "uint8",
              "name": "dataSourceId",
              "type": "uint8"
            },
            {
              "internalType": "uint256",
              "name": "nonce",
              "type": "uint256"
            }
          ],
          "internalType": "struct TradeParams",
          "name": "params",
          "type": "tuple"
        },
        {
          "internalType": "bytes",
          "name": "extraData",
          "type": "bytes"
        }
      ],
      "name": "settleTrade",
      "outputs": [
        {
          "internalType": "address",
          "name": "winner",
          "type": "address"
        },
        {
          "internalType": "uint256",
          "name": "payoff",
          "type": "uint256"
        }
      ],
      "stateMutability": "payable",
      "type": "function"
    },
    {
      "inputs": [
        {
          "components": [
            {
              "internalType": "address",
              "name": "depositAsset",
              "type": "address"
            },
            {
              "internalType": "address",
              "name": "initiator",
              "type": "address"
            },
            {
              "internalType": "uint256",
              "name": "initiatorAmount",
              "type": "uint256"
            },
            {
              "internalType": "address",
              "name": "acceptor",
              "type": "address"
            },
            {
              "internalType": "uint256",
              "name": "acceptorAmount",
              "type": "uint256"
            },
            {
              "internalType": "uint256",
              "name": "acceptionDeadline",
              "type": "uint256"
            },
            {
              "internalType": "uint256",
              "name": "expiry",
              "type": "uint256"
            },
            {
              "internalType": "uint32",
              "name": "observationAssetId",
              "type": "uint32"
            },
            {
              "internalType": "enum BasicTradeDirection",
              "name": "direction",
              "type": "uint8"
            },
            {
              "internalType": "uint256",
              "name": "price",
              "type": "uint256"
            },
            {
              "internalType": "uint8",
              "name": "dataSourceId",
              "type": "uint8"
            },
            {
              "internalType": "uint256",
              "name": "nonce",
              "type": "uint256"
            }
          ],
          "internalType": "struct TradeParams",
          "name": "params",
          "type": "tuple"
        },
        {
          "internalType": "bytes",
          "name": "initiatorSignature",
          "type": "bytes"
        }
      ],
      "name": "startTrade",
      "outputs": [
        {
          "internalType": "bytes32",
          "name": "tradeHash",
          "type": "bytes32"
        }
      ],
      "stateMutability": "nonpayable",
      "type": "function"
    },
    {
      "inputs": [
        {
          "internalType": "bytes32",
          "name": "",
          "type": "bytes32"
        }
      ],
      "name": "tradeDetails",
      "outputs": [
        {
          "internalType": "enum TradeStatus",
          "name": "status",
          "type": "uint8"
        },
        {
          "internalType": "address",
          "name": "acceptor",
          "type": "address"
        }
      ],
      "stateMutability": "view",
      "type": "function"
    },
    {
      "inputs": [
        {
          "internalType": "address",
          "name": "newOwner",
          "type": "address"
        }
      ],
      "name": "transferOwnership",
      "outputs": [],
      "stateMutability": "nonpayable",
      "type": "function"
    }
  ],
  "bytecode": "0x6101606040523461018b57604051610018604082610190565b600a81526020810190695472616465456e74727960b01b825260405191610040604084610190565b600183526020830191603160f81b835233156101755760008054336001600160a01b0319821681178355916001600160a01b03909116907f8be0079c531659141344cd1fd0a4f28419497f9722a3daafe3b4186f6b6457e09080a36100a4816101c9565b610120526100b18461038d565b61014052519020918260e05251902080610100524660a0526040519060208201927f8b73c3c69bb8fe3d512ecc4cf759cc79239f7b179b0ffacaa9a75d522b39400f8452604083015260608201524660808201523060a082015260a0815261011a60c082610190565b5190206080523060c052604051611d93908161052c823960805181611898015260a0518161194f015260c05181611862015260e051816118e70152610100518161190d01526101205181610667015261014051816106900152f35b631e4fbdf760e01b600052600060045260246000fd5b600080fd5b601f909101601f19168101906001600160401b038211908210176101b357604052565b634e487b7160e01b600052604160045260246000fd5b90815160208110600014610261575090601f8151116102055760208151910151602082106101f5571790565b6000198260200360031b1b161790565b6040519063305a27a960e01b8252602060048301528181519182602483015260005b8381106102495750508160006044809484010152601f80199101168101030190fd5b60208282018101516044878401015285935001610227565b6001600160401b0381116101b357600154600181811c91168015610383575b602082101461036d57601f8111610337575b50602092601f82116001146102d257928192936000926102c7575b50508160011b916000199060031b1c19161760015560ff90565b0151905038806102ad565b601f198216936001600052806000209160005b86811061031f5750836001959610610306575b505050811b0160015560ff90565b015160001960f88460031b161c191690553880806102f8565b919260206001819286850151815501940192016102e5565b6001600052601f6020600020910160051c810190601f830160051c015b8181106103615750610292565b60008155600101610354565b634e487b7160e01b600052602260045260246000fd5b90607f1690610280565b90815160208110600014610415575090601f8151116103b95760208151910151602082106101f5571790565b6040519063305a27a960e01b8252602060048301528181519182602483015260005b8381106103fd5750508160006044809484010152601f80199101168101030190fd5b602082820181015160448784010152859350016103db565b6001600160401b0381116101b357600254600181811c91168015610521575b602082101461036d57601f81116104eb575b50602092601f8211600114610486579281929360009261047b575b50508160011b916000199060031b1c19161760025560ff90565b015190503880610461565b601f198216936002600052806000209160005b8681106104d357508360019596106104ba575b505050811b0160025560ff90565b015160001960f88460031b161c191690553880806104ac565b91926020600181928685015181550194019201610499565b6002600052601f6020600020910160051c810190601f830160051c015b8181106105155750610446565b60008155600101610508565b90607f169061043456fe6080604052600436101561001257600080fd5b60003560e01c806313ba044a14610d2b5780632bba58ac14610cf05780632f0ce88b14610c4e5780632f1fe21914610bfe5780635b5259c014610baa578063715018a614610b5157806374b4e990146109935780637d1b9d661461074b57806384b0196e1461064e5780638da5cb5b14610625578063a42bc3c414610588578063a6d8bb4a14610253578063b996db9f14610214578063c8f2e8f6146101dd578063ee22fd6f14610192578063f2fde38b146101055763f98d06f0146100d757600080fd5b34610100576000366003190112610100576006546040516001600160a01b039091168152602090f35b600080fd5b34610100576020366003190112610100576004356001600160a01b0381169081900361010057610133610fdf565b801561017c57600080546001600160a01b03198116831782556001600160a01b0316907f8be0079c531659141344cd1fd0a4f28419497f9722a3daafe3b4186f6b6457e09080a3005b631e4fbdf760e01b600052600060045260246000fd5b34610100576020366003190112610100576004356001600160a01b03811690819003610100576101c0610fdf565b6bffffffffffffffffffffffff60a01b6006541617600655600080f35b346101005760203660031901126101005763ffffffff6101fb610e1d565b1660005260076020526020604060002054604051908152f35b346101005760203660031901126101005763ffffffff610232610e1d565b166000526005602052602060018060a01b0360406000205416604051908152f35b346101005761029661028d61028761026a36610e30565b9391929061027f61027a85611008565b611124565b943691610f8c565b83611c26565b90949194611c62565b60208101926001600160a01b036102ac85610f18565b166001600160a01b03909116036105775760e0810163ffffffff6102cf82610f07565b166000526004602052604060002061014083019060ff6102ee83610f7e565b1660005260205260ff60406000205416156105665760608301916001600160a01b0361031984610f18565b1615801561054c575b1561053b5760a084013580421161052a5785600052600360205260ff60406000205416600581101561050357610519576001600160a01b0361036386610f18565b169361038061037189610f18565b60408801359687913091611819565b6001600160a01b0361039187610f18565b16906103a66080880135809330903390611819565b604051956103b387610f2c565b600287526020870196338852896000526003602052604060002090519760058910156105035781549051610100600160a81b0360089190911b1660ff999099166001600160a81b0319909116179790971790965560405198600096906001600160a01b036104208a610ecd565b168b526001600160a01b039061043590610ecd565b1660208b015260408a01526001600160a01b039061045290610ecd565b166060890152608088015260a087015260c084013560c08701523563ffffffff81168091036104ff5760e086015261010083013560028110156104ff5761049e90610100870190610fd2565b610120830135610120860152359060ff82168092036104fc57506101808461016085947f590f33bfb6225519f30ca1f4d542a82e3ba4fc5b288a1f778989700f0377f0749461014060209901520135610160820152a2604051908152f35b80fd5b8280fd5b634e487b7160e01b600052602160045260246000fd5b6313592ca160e01b60005260046000fd5b6332efb7e360e11b60005260046000fd5b6336dd9bc760e11b60005260046000fd5b5061055683610f18565b6001600160a01b03163314610322565b638e66a77160e01b60005260046000fd5b638baa579f60e01b60005260046000fd5b346101005761059636610dbd565b6105a1939193610fdf565b8083036106145760005b8381106105b457005b806105ca6105c56001938589610ee1565b610f18565b63ffffffff6105e26105dd848989610ee1565b610f07565b166000526005602052604060002090838060a01b03166bffffffffffffffffffffffff60a01b825416179055016105ab565b631fec674760e31b60005260046000fd5b34610100576000366003190112610100576000546040516001600160a01b039091168152602090f35b34610100576000366003190112610100576106ed61068b7f0000000000000000000000000000000000000000000000000000000000000000611a28565b6106b47f0000000000000000000000000000000000000000000000000000000000000000611b54565b60206106fb604051926106c78385610f5d565b600084526000368137604051958695600f60f81b875260e08588015260e0870190610e8c565b908582036040870152610e8c565b466060850152306080850152600060a085015283810360c085015281808451928381520193019160005b82811061073457505050500390f35b835185528695509381019392810192600101610725565b61075436610e30565b9060009161076461027a85611008565b91828452600360205260408420936040519461077f86610f2c565b549460ff8616600581101561097f578152602081019560018060a01b039060081c16865251600581101561096b576001190161095c5760c08601359081421061094d5750906107e892916107d66101408801610f7e565b6107e260e08901610f07565b90611214565b91516001600160a01b0316916101008401356002811015610100578015908161093d575b811561091d575b50610909575b604084013593608081013585018095116108f3577f17b91b2cf6a34f3e0cd1cd5924f43389b85d32a7bb411a7c2dbb850b0f2c43df916060916108a3906001600160a01b039061086890610f18565b60405163a9059cbb60e01b60208201526001600160a01b038916602482015260448082018b90528152911661089e606483610f5d565b6119cd565b8360005260036020526040600020600460ff1982541617905560405190815260018060a01b0385166020820152856040820152a2604080516001600160a01b039290921682526020820192909252f35b634e487b7160e01b600052601160045260246000fd5b915061091760208401610f18565b91610819565b60019150148061092e575b85610813565b50610120840135811115610928565b610120860135831015915061080c565b63e170cd2960e01b8152600490fd5b6313592ca160e01b8152600490fd5b634e487b7160e01b82526021600452602482fd5b634e487b7160e01b83526021600452602483fd5b34610100576101803660031901126101005760006024356001600160a01b038116908181036104ff57338203610b42576004356001600160a01b0381169190828103610b3e5750506064356001600160a01b0381169290838103610b3e575060e43563ffffffff811690818103610b3a5750610104356002811015610b3a57610144359060ff821692838303610b3657610acc96610a9993506040519560208701977f2848f30e7e38df18dad512fc93cad9a56bb220d037d94f9eccba33cd17956ae1895260408801526060870152604435608087015260a086015260843560c086015260a43560e086015260c435610100860152610120850152610140840190610fd2565b61012435610160830152610180820152610164356101a08201526101a08152610ac46101c082610f5d565b519020611124565b808252600360205260ff604083205416600581101561097f57610b2757808252600360205260408220805460ff191660011790557f4e09303ea9c3932854b42432aa9f65348205f9681747864bf122101b353715038280a280f35b6313592ca160e01b8252600482fd5b8780fd5b8580fd5b8480fd5b636c0148fd60e01b8352600483fd5b3461010057600036600319011261010057610b6a610fdf565b600080546001600160a01b0319811682556001600160a01b03167f8be0079c531659141344cd1fd0a4f28419497f9722a3daafe3b4186f6b6457e08280a3005b3461010057604036600319011261010057610bc3610e1d565b63ffffffff610bd0610e0d565b9116600052600460205260ff60406000209116600052602052602060ff604060002054166040519015158152f35b3461010057602036600319011261010057600435600052600360205260406000205460ff8116906040519060058310156105035791815260089190911c6001600160a01b03166020820152604090f35b34610100576060366003190112610100576004356001600160401b03811161010057610c7e903690600401610d8d565b90610c87610e0d565b6044359182151580930361010057610c9d610fdf565b60ff80600094169216925b848110610cb157005b8063ffffffff610cc76105dd6001948987610ee1565b166000526004602052604080600020600090878252602052208460ff1982541617905501610ca8565b346101005760003660031901126101005760206040517f2848f30e7e38df18dad512fc93cad9a56bb220d037d94f9eccba33cd17956ae18152f35b3461010057610d3936610dbd565b9290610d43610fdf565b8383036106145760005b838110610d5657005b80610d646001928785610ee1565b3563ffffffff610d786105dd848989610ee1565b16600052600760205260406000205501610d4d565b9181601f84011215610100578235916001600160401b038311610100576020808501948460051b01011161010057565b6040600319820112610100576004356001600160401b0381116101005781610de791600401610d8d565b92909291602435906001600160401b03821161010057610e0991600401610d8d565b9091565b6024359060ff8216820361010057565b6004359063ffffffff8216820361010057565b60031981016101a08112610100576101801361010057600491610184356001600160401b0381116101005782602382011215610100578060040135926001600160401b0384116101005760248483010111610100576024019190565b919082519283825260005b848110610eb8575050826000602080949584010152601f8019910116010190565b80602080928401015182828601015201610e97565b35906001600160a01b038216820361010057565b9190811015610ef15760051b0190565b634e487b7160e01b600052603260045260246000fd5b3563ffffffff811681036101005790565b356001600160a01b03811681036101005790565b604081019081106001600160401b03821117610f4757604052565b634e487b7160e01b600052604160045260246000fd5b90601f801991011681019081106001600160401b03821117610f4757604052565b3560ff811681036101005790565b9291926001600160401b038211610f475760405191610fb5601f8201601f191660200184610f5d565b829481845281830111610100578281602093846000960137010152565b9060028210156105035752565b6000546001600160a01b03163303610ff357565b63118cdaa760e01b6000523360045260246000fd5b61101181610f18565b9061101e60208201610f18565b9061102b60608201610f18565b9061103860e08201610f07565b91610100820135906002821015610100576110f460ff9263ffffffff610160966110656101408801610f7e565b946040519960208b019b7f2848f30e7e38df18dad512fc93cad9a56bb220d037d94f9eccba33cd17956ae18d5260018060a01b031660408c015260018060a01b031660608b0152604088013560808b015260018060a01b031660a08a0152608087013560c08a015260a087013560e08a015260c08701356101008a015216610120880152610140870190610fd2565b610120830135848601521661018084015201356101a08201526101a0815261111e6101c082610f5d565b51902090565b60429061112f61185f565b906040519161190160f01b8352600283015260228201522090565b805115610ef15760200190565b919082608091031261010057604051608081018181106001600160401b03821117610f4757604052809280518060070b810361010057825260208101516001600160401b038116810361010057602083015260408101518060030b8103610100576040830152606090810151910152565b519069ffffffffffffffffffff8216820361010057565b908160a0910312610100576111f3816111c8565b916020820151916040810151916112116080606084015193016111c8565b90565b9193929160ff1660018103611417575063ffffffff16600052600560205260208160018060a01b0360406000205416938101031261010057359169ffffffffffffffffffff831680930361010057604051639a6fc8f560e01b8152600481018490529260a084602481865afa80156113d85760009485916113ef575b508281151591826113e4575b5050156113875760010169ffffffffffffffffffff81116108f35769ffffffffffffffffffff602460a0926040519586938492639a6fc8f560e01b84521660048301525afa9182156113d8576000926113a2575b508115918215611398575b50501561138757600061130e600a6119bf565b8281029290828212600160ff1b82141661135f57818405149015171561134b57808212611339575090565b602491635467221960e11b8252600452fd5b634e487b7160e01b81526011600452602490fd5b634e487b7160e01b83526011600452602483fd5b634e487b7160e01b82526011600452602482fd5b630417e54960e11b60005260046000fd5b11905038806112fb565b6113c591925060a03d60a0116113d1575b6113bd8183610f5d565b8101906111df565b509250505090386112f0565b503d6113b3565b6040513d6000823e3d90fd5b11159050823861129c565b905061140b91945060a03d60a0116113d1576113bd8183610f5d565b50959250509338611290565b919493916002036118085763ffffffff909493941660005260076020526040600020549060409283519461144b8587610f5d565b60018652601f1985019160005b8381106117f557509061146c913691610f8c565b6114758661114a565b5261147f8561114a565b5083519061148d8583610f5d565b600182526020820190368237836114a38361114a565b526006546001600160a01b0316926114c36114bd82611975565b91611975565b908651978894634716e9c560e01b86526084860160806004880152825180915260a4870190602060a48260051b8a01019401916000905b8282106117bf5750505050602090600319878403016024880152519182815201939060005b8181106117a657505050600094926001600160401b038593818594166044850152166064830152039134905af192831561179b57600093611683575b5060018351036116725761156e8361114a565b515103611672576020611591816115848561114a565b5101515160070b9361114a565b510151015160030b600003808060030b036108f3576000919063ffffffff1660128110156116115763ffffffff6115ca6115d0926119a8565b166119bf565b8181029190838212600160ff1b8214166115fd57818305149015171561137357905b808212611339575090565b634e487b7160e01b84526011600452602484fd5b601281111561166b576011190163ffffffff811161135f5763ffffffff61163891166119bf565b90811561165757600160ff1b811460001983141661135f5705906115f2565b634e487b7160e01b83526012600452602483fd5b50906115f2565b63a9a05cbf60e01b60005260046000fd5b90923d8082843e6116948184610f5d565b820191602081840312611797578051906001600160401b0382116104ff570182601f82011215611797578051916001600160401b0383116117835760208360051b01936116e386519586610f5d565b83855260206101208187019502840101928184116104ff57602001935b838510611713575050505050913861155b565b610120858303126104ff578651606081018181106001600160401b0382111761176f578852855181526101209160209161174f85898501611157565b838201526117608560a08a01611157565b8a820152815201940193611700565b634e487b7160e01b85526041600452602485fd5b634e487b7160e01b81526041600452602490fd5b5080fd5b82513d6000823e3d90fd5b825186528a96506020958601959092019160010161151f565b91939460206117e1819260019496999a9b9c60a3199082030186528951610e8c565b9701920192018c98979695949391926114fa565b60606020828a0181019190915201611458565b6332425d4f60e21b60005260046000fd5b6040516323b872dd60e01b60208201526001600160a01b03928316602482015292909116604483015260648083019390935291815261185d9161089e608483610f5d565b565b307f00000000000000000000000000000000000000000000000000000000000000006001600160a01b0316148061194c575b156118ba577f000000000000000000000000000000000000000000000000000000000000000090565b60405160208101907f8b73c3c69bb8fe3d512ecc4cf759cc79239f7b179b0ffacaa9a75d522b39400f82527f000000000000000000000000000000000000000000000000000000000000000060408201527f000000000000000000000000000000000000000000000000000000000000000060608201524660808201523060a082015260a0815261111e60c082610f5d565b507f00000000000000000000000000000000000000000000000000000000000000004614611891565b6001600160401b03811161198f576001600160401b031690565b6306dfcc6560e41b600052604060045260245260446000fd5b63ffffffff166012039063ffffffff82116108f357565b604d81116108f357600a0a90565b906000602091828151910182855af1156113d8576000513d611a1f57506001600160a01b0381163b155b6119fe5750565b635274afe760e01b60009081526001600160a01b0391909116600452602490fd5b600114156119f7565b60ff8114611a725760ff811690601f8211611a61576040805192611a4c8285610f5d565b6020808552840191601f190136833783525290565b632cd44ac360e21b60005260046000fd5b506040516000600154908160011c91600181168015611b4a575b602084108114611b36578385528492918115611b175750600114611ab7575b61121192500382610f5d565b506001600090815290917fb10e2d527612073b26eecdfd717e6a320cf44b4afac2b0732d9fcbe2b7fa0cf65b818310611afb57505090602061121192820101611aab565b6020919350806001915483858801015201910190918392611ae3565b6020925061121194915060ff191682840152151560051b820101611aab565b634e487b7160e01b83526022600452602483fd5b92607f1692611a8c565b60ff8114611b785760ff811690601f8211611a61576040805192611a4c8285610f5d565b506040516000600254908160011c91600181168015611c1c575b602084108114611b36578385528492918115611b175750600114611bbc5761121192500382610f5d565b506002600090815290917f405787fa12a823e0f2b7631cc41b3ba8828b3321ca811111fa75cd3aa3bb5ace5b818310611c0057505090602061121192820101611aab565b6020919350806001915483858801015201910190918392611be8565b92607f1692611b92565b8151919060418303611c5757611c5092506020820151906060604084015193015160001a90611cd4565b9192909190565b505060009160029190565b91909160048110156105035780611c7857509050565b600060018203611c935763f645eedf60e01b60005260046000fd5b5060028103611cb1578263fce698f760e01b60005260045260246000fd5b9091600360009214611cc1575050565b6335e2f38360e21b825260045260249150fd5b91907f7fffffffffffffffffffffffffffffff5d576e7357a4501ddfe92f46681b20a08411611d51579160209360809260ff60009560405194855216868401526040830152606082015282805260015afa156113d8576000516001600160a01b03811615611d455790600090600090565b50600090600190600090565b5050506000916003919056fea2646970667358221220762187fa133b1b76d8f5c69041d322228c23902a65b11ce451d16d876d12ba2d64736f6c634300081b0033",
  "linkReferences": {},
  "deployedLinkReferences": {}
}