{
  "_format": "hh-sol-artifact-1",
  "contractName": "TradeEntry",
  "sourceName": "contracts/TradeEntry.sol",
  "abi": [
    {
      "inputs": [],
      "stateMutability": "nonpayable",
      "type": "constructor"
    },
    {
      "inputs": [],
      "name": "AcceptionDeadlinePassed",
      "type": "error"
    },
    {
      "inputs": [],
      "name": "ECDSAInvalidSignature",
      "type": "error"
    },
    {
      "inputs": [
        {
          "internalType": "uint256",
          "name": "length",
          "type": "uint256"
        }
      ],
      "name": "ECDSAInvalidSignatureLength",
      "type": "error"
    },
    {
      "inputs": [
        {
          "internalType": "bytes32",
          "name": "s",
          "type": "bytes32"
        }
      ],
      "name": "ECDSAInvalidSignatureS",
      "type": "error"
    },
    {
      "inputs": [],
      "name": "InvalidChainlinkRoundId",
      "type": "error"
    },
    {
      "inputs": [],
      "name": "InvalidDataSource",
      "type": "error"
    },
    {
      "inputs": [],
      "name": "InvalidInitialization",
      "type": "error"
    },
    {
      "inputs": [],
      "name": "InvalidSignature",
      "type": "error"
    },
    {
      "inputs": [],
      "name": "NotInitializing",
      "type": "error"
    },
    {
      "inputs": [],
      "name": "NotTradeAcceptor",
      "type": "error"
    },
    {
      "inputs": [],
      "name": "NotTradeInitiator",
      "type": "error"
    },
    {
      "inputs": [
        {
          "internalType": "address",
          "name": "owner",
          "type": "address"
        }
      ],
      "name": "OwnableInvalidOwner",
      "type": "error"
    },
    {
      "inputs": [
        {
          "internalType": "address",
          "name": "account",
          "type": "address"
        }
      ],
      "name": "OwnableUnauthorizedAccount",
      "type": "error"
    },
    {
      "inputs": [
        {
          "internalType": "int256",
          "name": "value",
          "type": "int256"
        }
      ],
      "name": "SafeCastOverflowedIntToUint",
      "type": "error"
    },
    {
      "inputs": [
        {
          "internalType": "address",
          "name": "token",
          "type": "address"
        }
      ],
      "name": "SafeERC20FailedOperation",
      "type": "error"
    },
    {
      "inputs": [],
      "name": "TradeNotExpired",
      "type": "error"
    },
    {
      "inputs": [],
      "name": "UnavailableAssetOrDataSource",
      "type": "error"
    },
    {
      "inputs": [],
      "name": "WrongTradeStatus",
      "type": "error"
    },
    {
      "anonymous": false,
      "inputs": [],
      "name": "EIP712DomainChanged",
      "type": "event"
    },
    {
      "anonymous": false,
      "inputs": [
        {
          "indexed": false,
          "internalType": "uint64",
          "name": "version",
          "type": "uint64"
        }
      ],
      "name": "Initialized",
      "type": "event"
    },
    {
      "anonymous": false,
      "inputs": [
        {
          "indexed": true,
          "internalType": "address",
          "name": "previousOwner",
          "type": "address"
        },
        {
          "indexed": true,
          "internalType": "address",
          "name": "newOwner",
          "type": "address"
        }
      ],
      "name": "OwnershipTransferred",
      "type": "event"
    },
    {
      "anonymous": false,
      "inputs": [
        {
          "indexed": true,
          "internalType": "bytes32",
          "name": "tradeHash",
          "type": "bytes32"
        }
      ],
      "name": "TradeCancelled",
      "type": "event"
    },
    {
      "anonymous": false,
      "inputs": [
        {
          "indexed": true,
          "internalType": "bytes32",
          "name": "tradeHash",
          "type": "bytes32"
        },
        {
          "indexed": false,
          "internalType": "uint256",
          "name": "settlementPrice",
          "type": "uint256"
        },
        {
          "indexed": false,
          "internalType": "address",
          "name": "winner",
          "type": "address"
        },
        {
          "indexed": false,
          "internalType": "uint256",
          "name": "payoff",
          "type": "uint256"
        }
      ],
      "name": "TradeSettled",
      "type": "event"
    },
    {
      "anonymous": false,
      "inputs": [
        {
          "indexed": true,
          "internalType": "bytes32",
          "name": "tradeHash",
          "type": "bytes32"
        },
        {
          "components": [
            {
              "internalType": "address",
              "name": "depositAsset",
              "type": "address"
            },
            {
              "internalType": "address",
              "name": "initiator",
              "type": "address"
            },
            {
              "internalType": "uint256",
              "name": "initiatorAmount",
              "type": "uint256"
            },
            {
              "internalType": "address",
              "name": "acceptor",
              "type": "address"
            },
            {
              "internalType": "uint256",
              "name": "acceptorAmount",
              "type": "uint256"
            },
            {
              "internalType": "uint256",
              "name": "acceptionDeadline",
              "type": "uint256"
            },
            {
              "internalType": "uint256",
              "name": "expiry",
              "type": "uint256"
            },
            {
              "internalType": "uint32",
              "name": "observationAssetId",
              "type": "uint32"
            },
            {
              "internalType": "enum BasicTradeDirection",
              "name": "direction",
              "type": "uint8"
            },
            {
              "internalType": "uint256",
              "name": "price",
              "type": "uint256"
            },
            {
              "internalType": "uint8",
              "name": "dataSourceId",
              "type": "uint8"
            },
            {
              "internalType": "uint256",
              "name": "nonce",
              "type": "uint256"
            }
          ],
          "indexed": false,
          "internalType": "struct TradeParams",
          "name": "params",
          "type": "tuple"
        }
      ],
      "name": "TradeStarted",
      "type": "event"
    },
    {
      "inputs": [],
      "name": "TRADE_TYPEHASH",
      "outputs": [
        {
          "internalType": "bytes32",
          "name": "",
          "type": "bytes32"
        }
      ],
      "stateMutability": "view",
      "type": "function"
    },
    {
      "inputs": [
        {
          "internalType": "uint32",
          "name": "",
          "type": "uint32"
        },
        {
          "internalType": "uint8",
          "name": "",
          "type": "uint8"
        }
      ],
      "name": "assetDataSourceAllowed",
      "outputs": [
        {
          "internalType": "bool",
          "name": "",
          "type": "bool"
        }
      ],
      "stateMutability": "view",
      "type": "function"
    },
    {
      "inputs": [
        {
          "components": [
            {
              "internalType": "address",
              "name": "depositAsset",
              "type": "address"
            },
            {
              "internalType": "address",
              "name": "initiator",
              "type": "address"
            },
            {
              "internalType": "uint256",
              "name": "initiatorAmount",
              "type": "uint256"
            },
            {
              "internalType": "address",
              "name": "acceptor",
              "type": "address"
            },
            {
              "internalType": "uint256",
              "name": "acceptorAmount",
              "type": "uint256"
            },
            {
              "internalType": "uint256",
              "name": "acceptionDeadline",
              "type": "uint256"
            },
            {
              "internalType": "uint256",
              "name": "expiry",
              "type": "uint256"
            },
            {
              "internalType": "uint32",
              "name": "observationAssetId",
              "type": "uint32"
            },
            {
              "internalType": "enum BasicTradeDirection",
              "name": "direction",
              "type": "uint8"
            },
            {
              "internalType": "uint256",
              "name": "price",
              "type": "uint256"
            },
            {
              "internalType": "uint8",
              "name": "dataSourceId",
              "type": "uint8"
            },
            {
              "internalType": "uint256",
              "name": "nonce",
              "type": "uint256"
            }
          ],
          "internalType": "struct TradeParams",
          "name": "params",
          "type": "tuple"
        }
      ],
      "name": "cancelTrade",
      "outputs": [],
      "stateMutability": "nonpayable",
      "type": "function"
    },
    {
      "inputs": [
        {
          "internalType": "uint32",
          "name": "",
          "type": "uint32"
        }
      ],
      "name": "chainlinkAssetPriceFeeds",
      "outputs": [
        {
          "internalType": "address",
          "name": "",
          "type": "address"
        }
      ],
      "stateMutability": "view",
      "type": "function"
    },
    {
      "inputs": [],
      "name": "eip712Domain",
      "outputs": [
        {
          "internalType": "bytes1",
          "name": "fields",
          "type": "bytes1"
        },
        {
          "internalType": "string",
          "name": "name",
          "type": "string"
        },
        {
          "internalType": "string",
          "name": "version",
          "type": "string"
        },
        {
          "internalType": "uint256",
          "name": "chainId",
          "type": "uint256"
        },
        {
          "internalType": "address",
          "name": "verifyingContract",
          "type": "address"
        },
        {
          "internalType": "bytes32",
          "name": "salt",
          "type": "bytes32"
        },
        {
          "internalType": "uint256[]",
          "name": "extensions",
          "type": "uint256[]"
        }
      ],
      "stateMutability": "view",
      "type": "function"
    },
    {
      "inputs": [],
      "name": "initialize",
      "outputs": [],
      "stateMutability": "nonpayable",
      "type": "function"
    },
    {
      "inputs": [],
      "name": "owner",
      "outputs": [
        {
          "internalType": "address",
          "name": "",
          "type": "address"
        }
      ],
      "stateMutability": "view",
      "type": "function"
    },
    {
      "inputs": [],
      "name": "renounceOwnership",
      "outputs": [],
      "stateMutability": "nonpayable",
      "type": "function"
    },
    {
      "inputs": [
        {
          "internalType": "uint32",
          "name": "assetId",
          "type": "uint32"
        },
        {
          "internalType": "uint8",
          "name": "dataSourceId",
          "type": "uint8"
        },
        {
          "internalType": "bool",
          "name": "allowed",
          "type": "bool"
        }
      ],
      "name": "setAssetDataSourceAllowed",
      "outputs": [],
      "stateMutability": "nonpayable",
      "type": "function"
    },
    {
      "inputs": [
        {
          "internalType": "uint32",
          "name": "assetId",
          "type": "uint32"
        },
        {
          "internalType": "address",
          "name": "feedAddress",
          "type": "address"
        }
      ],
      "name": "setChainlinkAssetPriceFeed",
      "outputs": [],
      "stateMutability": "nonpayable",
      "type": "function"
    },
    {
      "inputs": [
        {
          "components": [
            {
              "internalType": "address",
              "name": "depositAsset",
              "type": "address"
            },
            {
              "internalType": "address",
              "name": "initiator",
              "type": "address"
            },
            {
              "internalType": "uint256",
              "name": "initiatorAmount",
              "type": "uint256"
            },
            {
              "internalType": "address",
              "name": "acceptor",
              "type": "address"
            },
            {
              "internalType": "uint256",
              "name": "acceptorAmount",
              "type": "uint256"
            },
            {
              "internalType": "uint256",
              "name": "acceptionDeadline",
              "type": "uint256"
            },
            {
              "internalType": "uint256",
              "name": "expiry",
              "type": "uint256"
            },
            {
              "internalType": "uint32",
              "name": "observationAssetId",
              "type": "uint32"
            },
            {
              "internalType": "enum BasicTradeDirection",
              "name": "direction",
              "type": "uint8"
            },
            {
              "internalType": "uint256",
              "name": "price",
              "type": "uint256"
            },
            {
              "internalType": "uint8",
              "name": "dataSourceId",
              "type": "uint8"
            },
            {
              "internalType": "uint256",
              "name": "nonce",
              "type": "uint256"
            }
          ],
          "internalType": "struct TradeParams",
          "name": "params",
          "type": "tuple"
        },
        {
          "internalType": "bytes",
          "name": "extraData",
          "type": "bytes"
        }
      ],
      "name": "settleTrade",
      "outputs": [
        {
          "internalType": "address",
          "name": "winner",
          "type": "address"
        },
        {
          "internalType": "uint256",
          "name": "payoff",
          "type": "uint256"
        }
      ],
      "stateMutability": "nonpayable",
      "type": "function"
    },
    {
      "inputs": [
        {
          "components": [
            {
              "internalType": "address",
              "name": "depositAsset",
              "type": "address"
            },
            {
              "internalType": "address",
              "name": "initiator",
              "type": "address"
            },
            {
              "internalType": "uint256",
              "name": "initiatorAmount",
              "type": "uint256"
            },
            {
              "internalType": "address",
              "name": "acceptor",
              "type": "address"
            },
            {
              "internalType": "uint256",
              "name": "acceptorAmount",
              "type": "uint256"
            },
            {
              "internalType": "uint256",
              "name": "acceptionDeadline",
              "type": "uint256"
            },
            {
              "internalType": "uint256",
              "name": "expiry",
              "type": "uint256"
            },
            {
              "internalType": "uint32",
              "name": "observationAssetId",
              "type": "uint32"
            },
            {
              "internalType": "enum BasicTradeDirection",
              "name": "direction",
              "type": "uint8"
            },
            {
              "internalType": "uint256",
              "name": "price",
              "type": "uint256"
            },
            {
              "internalType": "uint8",
              "name": "dataSourceId",
              "type": "uint8"
            },
            {
              "internalType": "uint256",
              "name": "nonce",
              "type": "uint256"
            }
          ],
          "internalType": "struct TradeParams",
          "name": "params",
          "type": "tuple"
        },
        {
          "internalType": "bytes",
          "name": "initiatorSignature",
          "type": "bytes"
        }
      ],
      "name": "startTrade",
      "outputs": [
        {
          "internalType": "bytes32",
          "name": "tradeHash",
          "type": "bytes32"
        }
      ],
      "stateMutability": "nonpayable",
      "type": "function"
    },
    {
      "inputs": [
        {
          "internalType": "bytes32",
          "name": "",
          "type": "bytes32"
        }
      ],
      "name": "tradeDetails",
      "outputs": [
        {
          "internalType": "enum TradeStatus",
          "name": "status",
          "type": "uint8"
        },
        {
          "internalType": "address",
          "name": "acceptor",
          "type": "address"
        }
      ],
      "stateMutability": "view",
      "type": "function"
    },
    {
      "inputs": [
        {
          "internalType": "address",
          "name": "newOwner",
          "type": "address"
        }
      ],
      "name": "transferOwnership",
      "outputs": [],
      "stateMutability": "nonpayable",
      "type": "function"
    }
  ],
  "bytecode": "0x60808060405234601557611c34908161001b8239f35b600080fdfe6080604052600436101561001257600080fd5b60003560e01c80630cf8ce45146110b45780632bba58ac146110795780632f1fe219146110295780635b5259c014610fd5578063715018a614610f6b57806374b4e99014610daf5780637cc5915c14610d435780637d1b9d6614610af75780638129fc1c1461063557806384b0196e146104e65780638da5cb5b146104b0578063a6d8bb4a14610131578063b996db9f146100f25763f2fde38b146100b657600080fd5b346100ed5760203660031901126100ed576004356001600160a01b03811681036100ed576100eb906100e66112dd565b611267565b005b600080fd5b346100ed5760203660031901126100ed5763ffffffff610110611113565b166000526002602052602060018060a01b0360406000205416604051908152f35b346100ed5761013f3661114a565b9161015161014c82611313565b61142f565b9167ffffffffffffffff841161049a57604051610178601f8601601f191660200182611219565b84815236858301116100ed5760006020866101a89761019f95838601378301015283611998565b909491946119d4565b60208101926001600160a01b036101be856111e9565b166001600160a01b03909116036104895760e0810163ffffffff6101e182611249565b166000526001602052604060002061014083019060ff6102008361123b565b1660005260205260ff60406000205416156104785760608301916001600160a01b0361022b846111e9565b1615801561045e575b1561044d5760a084013580421161043c5785600052600060205260ff6040600020541660058110156104155761042b576001600160a01b03610275866111e9565b1693610292610283896111e9565b604088013596879130916118bf565b6001600160a01b036102a3876111e9565b16906102b860808801358093309033906118bf565b604051956102c5876111fd565b600287526020870196338852896000526000602052604060002090519760058910156104155781549051610100600160a81b0360089190911b1660ff999099166001600160a81b0319909116179790971790965560405198600096906001600160a01b036103328a611126565b168b526001600160a01b039061034790611126565b1660208b015260408a01526001600160a01b039061036490611126565b166060890152608088015260a087015260c084013560c08701523563ffffffff81168091036104115760e08601526101008301356002811015610411576103b09061010087019061125a565b610120830135610120860152359060ff821680920361040e57506101808461016085947f590f33bfb6225519f30ca1f4d542a82e3ba4fc5b288a1f778989700f0377f0749461014060209901520135610160820152a2604051908152f35b80fd5b8280fd5b634e487b7160e01b600052602160045260246000fd5b6313592ca160e01b60005260046000fd5b6332efb7e360e11b60005260046000fd5b6336dd9bc760e11b60005260046000fd5b50610468836111e9565b6001600160a01b03163314610234565b638e66a77160e01b60005260046000fd5b638baa579f60e01b60005260046000fd5b634e487b7160e01b600052604160045260246000fd5b346100ed5760003660031901126100ed57600080516020611b9f833981519152546040516001600160a01b039091168152602090f35b346100ed5760003660031901126100ed577fa16a46d94261c7517cc8ff89f61c0ce93598e3c849801011dee649a6a557d10054158061060c575b156105cf5761057161053061173b565b61053861180e565b602061057f6040519261054b8385611219565b600084526000368137604051958695600f60f81b875260e08588015260e08701906111a8565b9085820360408701526111a8565b466060850152306080850152600060a085015283810360c085015281808451928381520193019160005b8281106105b857505050500390f35b8351855286955093810193928101926001016105a9565b60405162461bcd60e51b81526020600482015260156024820152741152540dcc4c8e88155b9a5b9a5d1a585b1a5e9959605a1b6044820152606490fd5b507fa16a46d94261c7517cc8ff89f61c0ce93598e3c849801011dee649a6a557d1015415610520565b346100ed5760003660031901126100ed57600080516020611bdf8339815191525460ff8160401c16159067ffffffffffffffff811680159081610aef575b6001149081610ae5575b159081610adc575b50610acb5767ffffffffffffffff198116600117600080516020611bdf8339815191525581610a9e575b506106b861196a565b6106c061196a565b6106c933611267565b6040908151916106d98184611219565b600a8352695472616465456e74727960b01b60208401528051916106fd8284611219565b60018352603160f81b602084015261071361196a565b61071b61196a565b835167ffffffffffffffff811161049a57610744600080516020611b7f83398151915254611701565b601f8111610a2c575b50602094601f82116001146109ab579481929394956000926109a0575b50508160011b916000199060031b1c191617600080516020611b7f833981519152555b825167ffffffffffffffff811161049a576107b6600080516020611bbf83398151915254611701565b601f811161092e575b506020601f82116001146108ad57819293946000926108a2575b50508160011b916000199060031b1c191617600080516020611bbf833981519152555b60007fa16a46d94261c7517cc8ff89f61c0ce93598e3c849801011dee649a6a557d1005560007fa16a46d94261c7517cc8ff89f61c0ce93598e3c849801011dee649a6a557d1015561084a57005b60207fc7f505b2f371ae2175ee4913f4499e1f2633a7b5936321eed1cdaeb6115181d29168ff000000000000000019600080516020611bdf8339815191525416600080516020611bdf833981519152555160018152a1005b0151905084806107d9565b601f19821690600080516020611bbf833981519152600052806000209160005b818110610916575095836001959697106108fd575b505050811b01600080516020611bbf833981519152556107fc565b015160001960f88460031b161c191690558480806108e2565b9192602060018192868b0151815501940192016108cd565b600080516020611bbf8339815191526000527f5f9ce34815f8e11431c7bb75a8e6886a91478f7ffc1dbb0a98dc240fddd76b75601f830160051c81019160208410610996575b601f0160051c01905b81811061098a57506107bf565b6000815560010161097d565b9091508190610974565b01519050858061076a565b601f19821695600080516020611b7f833981519152600052806000209160005b888110610a14575083600195969798106109fb575b505050811b01600080516020611b7f8339815191525561078d565b015160001960f88460031b161c191690558580806109e0565b919260206001819286850151815501940192016109cb565b600080516020611b7f8339815191526000527f42ad5d3e1f2e6e70edcf6d991b8a3023d3fca8047a131592f9edb9fd9b89d57d601f830160051c81019160208410610a94575b601f0160051c01905b818110610a88575061074d565b60008155600101610a7b565b9091508190610a72565b68ffffffffffffffffff19166801000000000000000117600080516020611bdf83398151915255816106af565b63f92ee8a960e01b60005260046000fd5b90501583610685565b303b15915061067d565b839150610673565b346100ed57610b053661114a565b90600091610b1561014c85611313565b9182845283602052604084209360405194610b2f866111fd565b549460ff86166005811015610d2f578152602081019560018060a01b039060081c168652516005811015610d1b5760011901610d0c5760c086013590814210610cfd575090610b989291610b86610140880161123b565b610b9260e08901611249565b906114fd565b91516001600160a01b03169161010084013560028110156100ed5780159081610ced575b8115610ccd575b50610cb9575b60408401359360808101358501809511610ca3577f17b91b2cf6a34f3e0cd1cd5924f43389b85d32a7bb411a7c2dbb850b0f2c43df91606091610c53906001600160a01b0390610c18906111e9565b60405163a9059cbb60e01b60208201526001600160a01b038916602482015260448082018b905281529116610c4e606483611219565b611903565b60008481526020818152604091829020805460ff1916600417905581519283526001600160a01b038716908301528101869052a2604080516001600160a01b039290921682526020820192909252f35b634e487b7160e01b600052601160045260246000fd5b9150610cc7602084016111e9565b91610bc9565b600191501480610cde575b85610bc3565b50610120840135811115610cd8565b6101208601358310159150610bbc565b63e170cd2960e01b8152600490fd5b6313592ca160e01b8152600490fd5b634e487b7160e01b82526021600452602482fd5b634e487b7160e01b83526021600452602483fd5b346100ed5760603660031901126100ed57610d5c611113565b610d6461113a565b604435918215158093036100ed5763ffffffff90610d806112dd565b16600052600160205260ff6040600020911660005260205260406000209060ff80198354169116179055600080f35b346100ed576101803660031901126100ed5760006024356001600160a01b0381169081810361041157338203610f5c576004356001600160a01b0381169190828103610f585750506064356001600160a01b0381169290838103610f58575060e43563ffffffff811690818103610f545750610104356002811015610f5457610144359060ff821692838303610f5057610ee896610eb593506040519560208701977f2848f30e7e38df18dad512fc93cad9a56bb220d037d94f9eccba33cd17956ae1895260408801526060870152604435608087015260a086015260843560c086015260a43560e086015260c43561010086015261012085015261014084019061125a565b61012435610160830152610180820152610164356101a08201526101a08152610ee06101c082611219565b51902061142f565b8082528160205260ff6040832054166005811015610d2f57610f41578082528160205260408220600160ff198254161790557f4e09303ea9c3932854b42432aa9f65348205f9681747864bf122101b353715038280a280f35b6313592ca160e01b8252600482fd5b8780fd5b8580fd5b8480fd5b636c0148fd60e01b8352600483fd5b346100ed5760003660031901126100ed57610f846112dd565b600080516020611b9f83398151915280546001600160a01b031981169091556000906001600160a01b03167f8be0079c531659141344cd1fd0a4f28419497f9722a3daafe3b4186f6b6457e08280a3005b346100ed5760403660031901126100ed57610fee611113565b63ffffffff610ffb61113a565b9116600052600160205260ff60406000209116600052602052602060ff604060002054166040519015158152f35b346100ed5760203660031901126100ed57600435600052600060205260406000205460ff8116906040519060058310156104155791815260089190911c6001600160a01b03166020820152604090f35b346100ed5760003660031901126100ed5760206040517f2848f30e7e38df18dad512fc93cad9a56bb220d037d94f9eccba33cd17956ae18152f35b346100ed5760403660031901126100ed576110cd611113565b6024356001600160a01b03811691908290036100ed5763ffffffff906110f16112dd565b16600090815260026020526040902080546001600160a01b0319169091179055005b6004359063ffffffff821682036100ed57565b35906001600160a01b03821682036100ed57565b6024359060ff821682036100ed57565b60031981016101a081126100ed57610180136100ed576004916101843567ffffffffffffffff81116100ed57826023820112156100ed5780600401359267ffffffffffffffff84116100ed57602484830101116100ed576024019190565b919082519283825260005b8481106111d4575050826000602080949584010152601f8019910116010190565b806020809284010151828286010152016111b3565b356001600160a01b03811681036100ed5790565b6040810190811067ffffffffffffffff82111761049a57604052565b90601f8019910116810190811067ffffffffffffffff82111761049a57604052565b3560ff811681036100ed5790565b3563ffffffff811681036100ed5790565b9060028210156104155752565b6001600160a01b031680156112c757600080516020611b9f83398151915280546001600160a01b0319811683179091556001600160a01b03167f8be0079c531659141344cd1fd0a4f28419497f9722a3daafe3b4186f6b6457e0600080a3565b631e4fbdf760e01b600052600060045260246000fd5b600080516020611b9f833981519152546001600160a01b031633036112fe57565b63118cdaa760e01b6000523360045260246000fd5b61131c816111e9565b90611329602082016111e9565b90611336606082016111e9565b9061134360e08201611249565b916101008201359060028210156100ed576113ff60ff9263ffffffff61016096611370610140880161123b565b946040519960208b019b7f2848f30e7e38df18dad512fc93cad9a56bb220d037d94f9eccba33cd17956ae18d5260018060a01b031660408c015260018060a01b031660608b0152604088013560808b015260018060a01b031660a08a0152608087013560c08a015260a087013560e08a015260c08701356101008a01521661012088015261014087019061125a565b610120830135848601521661018084015201356101a08201526101a081526114296101c082611219565b51902090565b60429061143a611acf565b611442611b39565b6040519060208201927f8b73c3c69bb8fe3d512ecc4cf759cc79239f7b179b0ffacaa9a75d522b39400f8452604083015260608201524660808201523060a082015260a0815261149360c082611219565b519020906040519161190160f01b8352600283015260228201522090565b519069ffffffffffffffffffff821682036100ed57565b908160a09103126100ed576114dc816114b1565b916020820151916040810151916114fa6080606084015193016114b1565b90565b91939092909160ff166001036116f05763ffffffff600093168352600260205260208160018060a01b03604086205416938101031261041157359269ffffffffffffffffffff841680940361041157604051639a6fc8f560e01b8152600481018590529360a085602481865afa80156116e557849585916116bd575b508281151591826116b2575b5050156116a35760010169ffffffffffffffffffff811161168f5769ffffffffffffffffffff602460a0926040519586938492639a6fc8f560e01b84521660048301525afa91821561168457839261164e575b508115918215611644575b50501561163557506402540be4008082029160009181840514901517156116215780821261160f575090565b602491635467221960e11b8252600452fd5b634e487b7160e01b81526011600452602490fd5b630417e54960e11b8152600490fd5b11905038806115e3565b61167191925060a03d60a01161167d575b6116698183611219565b8101906114c8565b509250505090386115d8565b503d61165f565b6040513d85823e3d90fd5b634e487b7160e01b84526011600452602484fd5b630417e54960e11b8452600484fd5b111590508238611585565b90506116d991955060a03d60a01161167d576116698183611219565b50969250509438611579565b6040513d86823e3d90fd5b6332425d4f60e21b60005260046000fd5b90600182811c92168015611731575b602083101461171b57565b634e487b7160e01b600052602260045260246000fd5b91607f1691611710565b60405190600082600080516020611b7f833981519152549161175c83611701565b80835292600181169081156117ef5750600114611782575b61178092500383611219565b565b50600080516020611b7f833981519152600090815290917f42ad5d3e1f2e6e70edcf6d991b8a3023d3fca8047a131592f9edb9fd9b89d57d5b8183106117d357505090602061178092820101611774565b60209193508060019154838589010152019101909184926117bb565b6020925061178094915060ff191682840152151560051b820101611774565b60405190600082600080516020611bbf833981519152549161182f83611701565b80835292600181169081156117ef57506001146118525761178092500383611219565b50600080516020611bbf833981519152600090815290917f5f9ce34815f8e11431c7bb75a8e6886a91478f7ffc1dbb0a98dc240fddd76b755b8183106118a357505090602061178092820101611774565b602091935080600191548385890101520191019091849261188b565b6040516323b872dd60e01b60208201526001600160a01b03928316602482015292909116604483015260648083019390935291815261178091610c4e608483611219565b906000602091828151910182855af11561195e576000513d61195557506001600160a01b0381163b155b6119345750565b635274afe760e01b60009081526001600160a01b0391909116600452602490fd5b6001141561192d565b6040513d6000823e3d90fd5b60ff600080516020611bdf8339815191525460401c161561198757565b631afcd79f60e31b60005260046000fd5b81519190604183036119c9576119c292506020820151906060604084015193015160001a90611a46565b9192909190565b505060009160029190565b919091600481101561041557806119ea57509050565b600060018203611a055763f645eedf60e01b60005260046000fd5b5060028103611a23578263fce698f760e01b60005260045260246000fd5b9091600360009214611a33575050565b6335e2f38360e21b825260045260249150fd5b91907f7fffffffffffffffffffffffffffffff5d576e7357a4501ddfe92f46681b20a08411611ac3579160209360809260ff60009560405194855216868401526040830152606082015282805260015afa1561195e576000516001600160a01b03811615611ab75790600090600090565b50600090600190600090565b50505060009160039190565b611ad761173b565b8051908115611ae7576020012090565b50507fa16a46d94261c7517cc8ff89f61c0ce93598e3c849801011dee649a6a557d100548015611b145790565b507fc5d2460186f7233c927e7db2dcc703c0e500b653ca82273b7bfad8045d85a47090565b611b4161180e565b8051908115611b51576020012090565b50507fa16a46d94261c7517cc8ff89f61c0ce93598e3c849801011dee649a6a557d101548015611b14579056fea16a46d94261c7517cc8ff89f61c0ce93598e3c849801011dee649a6a557d1029016d09d72d40fdae2fd8ceac6b6234c7706214fd39c1cd1e609a0528c199300a16a46d94261c7517cc8ff89f61c0ce93598e3c849801011dee649a6a557d103f0c57e16840df040f15088dc2f81fe391c3923bec73e23a9662efc9c229c6a00a2646970667358221220c6163b0fe8e6d6478e3f30656f3be578b104813c0b5c4dc19cbcdc3d4d21f2db64736f6c634300081b0033",
  "linkReferences": {},
  "deployedLinkReferences": {}
}