{
  "_format": "hh-sol-artifact-1",
  "contractName": "TradeEntry",
  "sourceName": "contracts/TradeEntry.sol",
  "abi": [
    {
      "inputs": [],
      "stateMutability": "nonpayable",
      "type": "constructor"
    },
    {
      "inputs": [],
      "name": "AcceptionDeadlinePassed",
      "type": "error"
    },
    {
      "inputs": [],
      "name": "ECDSAInvalidSignature",
      "type": "error"
    },
    {
      "inputs": [
        {
          "internalType": "uint256",
          "name": "length",
          "type": "uint256"
        }
      ],
      "name": "ECDSAInvalidSignatureLength",
      "type": "error"
    },
    {
      "inputs": [
        {
          "internalType": "bytes32",
          "name": "s",
          "type": "bytes32"
        }
      ],
      "name": "ECDSAInvalidSignatureS",
      "type": "error"
    },
    {
      "inputs": [],
      "name": "InvalidChainlinkRoundId",
      "type": "error"
    },
    {
      "inputs": [],
      "name": "InvalidDataSource",
      "type": "error"
    },
    {
      "inputs": [],
      "name": "InvalidInitialization",
      "type": "error"
    },
    {
      "inputs": [],
      "name": "InvalidPythResponse",
      "type": "error"
    },
    {
      "inputs": [],
      "name": "InvalidSignature",
      "type": "error"
    },
    {
      "inputs": [],
      "name": "LengthMismatch",
      "type": "error"
    },
    {
      "inputs": [],
      "name": "NotInitializing",
      "type": "error"
    },
    {
      "inputs": [],
      "name": "NotTradeAcceptor",
      "type": "error"
    },
    {
      "inputs": [],
      "name": "NotTradeInitiator",
      "type": "error"
    },
    {
      "inputs": [
        {
          "internalType": "address",
          "name": "owner",
          "type": "address"
        }
      ],
      "name": "OwnableInvalidOwner",
      "type": "error"
    },
    {
      "inputs": [
        {
          "internalType": "address",
          "name": "account",
          "type": "address"
        }
      ],
      "name": "OwnableUnauthorizedAccount",
      "type": "error"
    },
    {
      "inputs": [
        {
          "internalType": "int256",
          "name": "value",
          "type": "int256"
        }
      ],
      "name": "SafeCastOverflowedIntToUint",
      "type": "error"
    },
    {
      "inputs": [
        {
          "internalType": "uint8",
          "name": "bits",
          "type": "uint8"
        },
        {
          "internalType": "uint256",
          "name": "value",
          "type": "uint256"
        }
      ],
      "name": "SafeCastOverflowedUintDowncast",
      "type": "error"
    },
    {
      "inputs": [
        {
          "internalType": "address",
          "name": "token",
          "type": "address"
        }
      ],
      "name": "SafeERC20FailedOperation",
      "type": "error"
    },
    {
      "inputs": [],
      "name": "TradeNotExpired",
      "type": "error"
    },
    {
      "inputs": [],
      "name": "UnavailableAssetOrDataSource",
      "type": "error"
    },
    {
      "inputs": [],
      "name": "WrongTradeStatus",
      "type": "error"
    },
    {
      "anonymous": false,
      "inputs": [],
      "name": "EIP712DomainChanged",
      "type": "event"
    },
    {
      "anonymous": false,
      "inputs": [
        {
          "indexed": false,
          "internalType": "uint64",
          "name": "version",
          "type": "uint64"
        }
      ],
      "name": "Initialized",
      "type": "event"
    },
    {
      "anonymous": false,
      "inputs": [
        {
          "indexed": true,
          "internalType": "address",
          "name": "previousOwner",
          "type": "address"
        },
        {
          "indexed": true,
          "internalType": "address",
          "name": "newOwner",
          "type": "address"
        }
      ],
      "name": "OwnershipTransferred",
      "type": "event"
    },
    {
      "anonymous": false,
      "inputs": [
        {
          "indexed": true,
          "internalType": "bytes32",
          "name": "tradeHash",
          "type": "bytes32"
        }
      ],
      "name": "TradeCancelled",
      "type": "event"
    },
    {
      "anonymous": false,
      "inputs": [
        {
          "indexed": true,
          "internalType": "bytes32",
          "name": "tradeHash",
          "type": "bytes32"
        },
        {
          "indexed": false,
          "internalType": "uint256",
          "name": "settlementPrice",
          "type": "uint256"
        },
        {
          "indexed": false,
          "internalType": "address",
          "name": "winner",
          "type": "address"
        },
        {
          "indexed": false,
          "internalType": "uint256",
          "name": "payoff",
          "type": "uint256"
        }
      ],
      "name": "TradeSettled",
      "type": "event"
    },
    {
      "anonymous": false,
      "inputs": [
        {
          "indexed": true,
          "internalType": "bytes32",
          "name": "tradeHash",
          "type": "bytes32"
        },
        {
          "components": [
            {
              "internalType": "address",
              "name": "depositAsset",
              "type": "address"
            },
            {
              "internalType": "address",
              "name": "initiator",
              "type": "address"
            },
            {
              "internalType": "uint256",
              "name": "initiatorAmount",
              "type": "uint256"
            },
            {
              "internalType": "address",
              "name": "acceptor",
              "type": "address"
            },
            {
              "internalType": "uint256",
              "name": "acceptorAmount",
              "type": "uint256"
            },
            {
              "internalType": "uint256",
              "name": "acceptionDeadline",
              "type": "uint256"
            },
            {
              "internalType": "uint256",
              "name": "expiry",
              "type": "uint256"
            },
            {
              "internalType": "uint32",
              "name": "observationAssetId",
              "type": "uint32"
            },
            {
              "internalType": "enum BasicTradeDirection",
              "name": "direction",
              "type": "uint8"
            },
            {
              "internalType": "uint256",
              "name": "price",
              "type": "uint256"
            },
            {
              "internalType": "uint8",
              "name": "dataSourceId",
              "type": "uint8"
            },
            {
              "internalType": "uint256",
              "name": "nonce",
              "type": "uint256"
            }
          ],
          "indexed": false,
          "internalType": "struct TradeParams",
          "name": "params",
          "type": "tuple"
        }
      ],
      "name": "TradeStarted",
      "type": "event"
    },
    {
      "inputs": [],
      "name": "TRADE_TYPEHASH",
      "outputs": [
        {
          "internalType": "bytes32",
          "name": "",
          "type": "bytes32"
        }
      ],
      "stateMutability": "view",
      "type": "function"
    },
    {
      "inputs": [
        {
          "internalType": "uint32",
          "name": "",
          "type": "uint32"
        },
        {
          "internalType": "uint8",
          "name": "",
          "type": "uint8"
        }
      ],
      "name": "assetDataSourceAllowed",
      "outputs": [
        {
          "internalType": "bool",
          "name": "",
          "type": "bool"
        }
      ],
      "stateMutability": "view",
      "type": "function"
    },
    {
      "inputs": [
        {
          "components": [
            {
              "internalType": "address",
              "name": "depositAsset",
              "type": "address"
            },
            {
              "internalType": "address",
              "name": "initiator",
              "type": "address"
            },
            {
              "internalType": "uint256",
              "name": "initiatorAmount",
              "type": "uint256"
            },
            {
              "internalType": "address",
              "name": "acceptor",
              "type": "address"
            },
            {
              "internalType": "uint256",
              "name": "acceptorAmount",
              "type": "uint256"
            },
            {
              "internalType": "uint256",
              "name": "acceptionDeadline",
              "type": "uint256"
            },
            {
              "internalType": "uint256",
              "name": "expiry",
              "type": "uint256"
            },
            {
              "internalType": "uint32",
              "name": "observationAssetId",
              "type": "uint32"
            },
            {
              "internalType": "enum BasicTradeDirection",
              "name": "direction",
              "type": "uint8"
            },
            {
              "internalType": "uint256",
              "name": "price",
              "type": "uint256"
            },
            {
              "internalType": "uint8",
              "name": "dataSourceId",
              "type": "uint8"
            },
            {
              "internalType": "uint256",
              "name": "nonce",
              "type": "uint256"
            }
          ],
          "internalType": "struct TradeParams",
          "name": "params",
          "type": "tuple"
        }
      ],
      "name": "cancelTrade",
      "outputs": [],
      "stateMutability": "nonpayable",
      "type": "function"
    },
    {
      "inputs": [
        {
          "internalType": "uint32",
          "name": "",
          "type": "uint32"
        }
      ],
      "name": "chainlinkAssetPriceFeeds",
      "outputs": [
        {
          "internalType": "address",
          "name": "",
          "type": "address"
        }
      ],
      "stateMutability": "view",
      "type": "function"
    },
    {
      "inputs": [
        {
          "internalType": "uint32[]",
          "name": "assetIds",
          "type": "uint32[]"
        },
        {
          "internalType": "address[]",
          "name": "feedAddresses",
          "type": "address[]"
        }
      ],
      "name": "configureChainlinkFeeds",
      "outputs": [],
      "stateMutability": "nonpayable",
      "type": "function"
    },
    {
      "inputs": [
        {
          "internalType": "uint32[]",
          "name": "assetIds",
          "type": "uint32[]"
        },
        {
          "internalType": "bytes32[]",
          "name": "feedIds",
          "type": "bytes32[]"
        }
      ],
      "name": "configurePythFeeds",
      "outputs": [],
      "stateMutability": "nonpayable",
      "type": "function"
    },
    {
      "inputs": [],
      "name": "eip712Domain",
      "outputs": [
        {
          "internalType": "bytes1",
          "name": "fields",
          "type": "bytes1"
        },
        {
          "internalType": "string",
          "name": "name",
          "type": "string"
        },
        {
          "internalType": "string",
          "name": "version",
          "type": "string"
        },
        {
          "internalType": "uint256",
          "name": "chainId",
          "type": "uint256"
        },
        {
          "internalType": "address",
          "name": "verifyingContract",
          "type": "address"
        },
        {
          "internalType": "bytes32",
          "name": "salt",
          "type": "bytes32"
        },
        {
          "internalType": "uint256[]",
          "name": "extensions",
          "type": "uint256[]"
        }
      ],
      "stateMutability": "view",
      "type": "function"
    },
    {
      "inputs": [],
      "name": "initialize",
      "outputs": [],
      "stateMutability": "nonpayable",
      "type": "function"
    },
    {
      "inputs": [],
      "name": "owner",
      "outputs": [
        {
          "internalType": "address",
          "name": "",
          "type": "address"
        }
      ],
      "stateMutability": "view",
      "type": "function"
    },
    {
      "inputs": [],
      "name": "pyth",
      "outputs": [
        {
          "internalType": "contract IPyth",
          "name": "",
          "type": "address"
        }
      ],
      "stateMutability": "view",
      "type": "function"
    },
    {
      "inputs": [
        {
          "internalType": "uint32",
          "name": "",
          "type": "uint32"
        }
      ],
      "name": "pythAssetFeedIds",
      "outputs": [
        {
          "internalType": "bytes32",
          "name": "",
          "type": "bytes32"
        }
      ],
      "stateMutability": "view",
      "type": "function"
    },
    {
      "inputs": [],
      "name": "renounceOwnership",
      "outputs": [],
      "stateMutability": "nonpayable",
      "type": "function"
    },
    {
      "inputs": [
        {
          "internalType": "uint32[]",
          "name": "assetIds",
          "type": "uint32[]"
        },
        {
          "internalType": "uint8",
          "name": "dataSourceId",
          "type": "uint8"
        },
        {
          "internalType": "bool",
          "name": "allowed",
          "type": "bool"
        }
      ],
      "name": "setAssetsDataSourceAllowed",
      "outputs": [],
      "stateMutability": "nonpayable",
      "type": "function"
    },
    {
      "inputs": [
        {
          "internalType": "contract IPyth",
          "name": "_pyth",
          "type": "address"
        }
      ],
      "name": "setPyth",
      "outputs": [],
      "stateMutability": "nonpayable",
      "type": "function"
    },
    {
      "inputs": [
        {
          "components": [
            {
              "internalType": "address",
              "name": "depositAsset",
              "type": "address"
            },
            {
              "internalType": "address",
              "name": "initiator",
              "type": "address"
            },
            {
              "internalType": "uint256",
              "name": "initiatorAmount",
              "type": "uint256"
            },
            {
              "internalType": "address",
              "name": "acceptor",
              "type": "address"
            },
            {
              "internalType": "uint256",
              "name": "acceptorAmount",
              "type": "uint256"
            },
            {
              "internalType": "uint256",
              "name": "acceptionDeadline",
              "type": "uint256"
            },
            {
              "internalType": "uint256",
              "name": "expiry",
              "type": "uint256"
            },
            {
              "internalType": "uint32",
              "name": "observationAssetId",
              "type": "uint32"
            },
            {
              "internalType": "enum BasicTradeDirection",
              "name": "direction",
              "type": "uint8"
            },
            {
              "internalType": "uint256",
              "name": "price",
              "type": "uint256"
            },
            {
              "internalType": "uint8",
              "name": "dataSourceId",
              "type": "uint8"
            },
            {
              "internalType": "uint256",
              "name": "nonce",
              "type": "uint256"
            }
          ],
          "internalType": "struct TradeParams",
          "name": "params",
          "type": "tuple"
        },
        {
          "internalType": "bytes",
          "name": "extraData",
          "type": "bytes"
        }
      ],
      "name": "settleTrade",
      "outputs": [
        {
          "internalType": "address",
          "name": "winner",
          "type": "address"
        },
        {
          "internalType": "uint256",
          "name": "payoff",
          "type": "uint256"
        }
      ],
      "stateMutability": "payable",
      "type": "function"
    },
    {
      "inputs": [
        {
          "components": [
            {
              "internalType": "address",
              "name": "depositAsset",
              "type": "address"
            },
            {
              "internalType": "address",
              "name": "initiator",
              "type": "address"
            },
            {
              "internalType": "uint256",
              "name": "initiatorAmount",
              "type": "uint256"
            },
            {
              "internalType": "address",
              "name": "acceptor",
              "type": "address"
            },
            {
              "internalType": "uint256",
              "name": "acceptorAmount",
              "type": "uint256"
            },
            {
              "internalType": "uint256",
              "name": "acceptionDeadline",
              "type": "uint256"
            },
            {
              "internalType": "uint256",
              "name": "expiry",
              "type": "uint256"
            },
            {
              "internalType": "uint32",
              "name": "observationAssetId",
              "type": "uint32"
            },
            {
              "internalType": "enum BasicTradeDirection",
              "name": "direction",
              "type": "uint8"
            },
            {
              "internalType": "uint256",
              "name": "price",
              "type": "uint256"
            },
            {
              "internalType": "uint8",
              "name": "dataSourceId",
              "type": "uint8"
            },
            {
              "internalType": "uint256",
              "name": "nonce",
              "type": "uint256"
            }
          ],
          "internalType": "struct TradeParams",
          "name": "params",
          "type": "tuple"
        },
        {
          "internalType": "bytes",
          "name": "initiatorSignature",
          "type": "bytes"
        }
      ],
      "name": "startTrade",
      "outputs": [
        {
          "internalType": "bytes32",
          "name": "tradeHash",
          "type": "bytes32"
        }
      ],
      "stateMutability": "nonpayable",
      "type": "function"
    },
    {
      "inputs": [
        {
          "internalType": "bytes32",
          "name": "",
          "type": "bytes32"
        }
      ],
      "name": "tradeDetails",
      "outputs": [
        {
          "internalType": "enum TradeStatus",
          "name": "status",
          "type": "uint8"
        },
        {
          "internalType": "address",
          "name": "acceptor",
          "type": "address"
        }
      ],
      "stateMutability": "view",
      "type": "function"
    },
    {
      "inputs": [
        {
          "internalType": "address",
          "name": "newOwner",
          "type": "address"
        }
      ],
      "name": "transferOwnership",
      "outputs": [],
      "stateMutability": "nonpayable",
      "type": "function"
    }
  ],
  "bytecode": "0x60808060405234601557612357908161001b8239f35b600080fdfe6080604052600436101561001257600080fd5b60003560e01c806313ba044a146112215780632bba58ac146111e65780632f0ce88b146111455780632f1fe219146110f55780635b5259c0146110a1578063715018a61461103757806374b4e99014610e7b5780637d1b9d6614610c345780638129fc1c1461075f57806384b0196e146106105780638da5cb5b146105da578063a42bc3c41461053d578063a6d8bb4a14610208578063b996db9f146101c9578063c8f2e8f614610192578063ee22fd6f14610147578063f2fde38b146101105763f98d06f0146100e257600080fd5b3461010b57600036600319011261010b576003546040516001600160a01b039091168152602090f35b600080fd5b3461010b57602036600319011261010b576004356001600160a01b038116810361010b5761014590610140611535565b6114bf565b005b3461010b57602036600319011261010b576004356001600160a01b0381169081900361010b57610175611535565b6bffffffffffffffffffffffff60a01b6003541617600355600080f35b3461010b57602036600319011261010b5763ffffffff6101b0611313565b1660005260046020526020604060002054604051908152f35b3461010b57602036600319011261010b5763ffffffff6101e7611313565b166000526002602052602060018060a01b0360406000205416604051908152f35b3461010b5761024b61024261023c61021f36611326565b9391929061023461022f8561156b565b611687565b94369161146c565b836120bb565b909491946120f7565b60208101926001600160a01b036102618561140e565b166001600160a01b039091160361052c5760e0810163ffffffff610284826113fd565b166000526001602052604060002061014083019060ff6102a38361145e565b1660005260205260ff604060002054161561051b5760608301916001600160a01b036102ce8461140e565b16158015610501575b156104f05760a08401358042116104df5785600052600060205260ff6040600020541660058110156104b8576104ce576001600160a01b036103188661140e565b16936103356103268961140e565b60408801359687913091611f96565b6001600160a01b036103468761140e565b169061035b6080880135809330903390611f96565b6040519561036887611422565b600287526020870196338852896000526000602052604060002090519760058910156104b85781549051610100600160a81b0360089190911b1660ff999099166001600160a81b0319909116179790971790965560405198600096906001600160a01b036103d58a6113c3565b168b526001600160a01b03906103ea906113c3565b1660208b015260408a01526001600160a01b0390610407906113c3565b166060890152608088015260a087015260c084013560c08701523563ffffffff81168091036104b45760e086015261010083013560028110156104b457610453906101008701906114b2565b610120830135610120860152359060ff82168092036104b157506101808461016085947f590f33bfb6225519f30ca1f4d542a82e3ba4fc5b288a1f778989700f0377f0749461014060209901520135610160820152a2604051908152f35b80fd5b8280fd5b634e487b7160e01b600052602160045260246000fd5b6313592ca160e01b60005260046000fd5b6332efb7e360e11b60005260046000fd5b6336dd9bc760e11b60005260046000fd5b5061050b8361140e565b6001600160a01b031633146102d7565b638e66a77160e01b60005260046000fd5b638baa579f60e01b60005260046000fd5b3461010b5761054b366112b3565b610556939193611535565b8083036105c95760005b83811061056957005b8061057f61057a60019385896113d7565b61140e565b63ffffffff6105976105928489896113d7565b6113fd565b166000526002602052604060002090838060a01b03166bffffffffffffffffffffffff60a01b82541617905501610560565b631fec674760e31b60005260046000fd5b3461010b57600036600319011261010b576000805160206122c2833981519152546040516001600160a01b039091168152602090f35b3461010b57600036600319011261010b577fa16a46d94261c7517cc8ff89f61c0ce93598e3c849801011dee649a6a557d100541580610736575b156106f95761069b61065a611e12565b610662611ee5565b60206106a960405192610675838561143d565b600084526000368137604051958695600f60f81b875260e08588015260e0870190611382565b908582036040870152611382565b466060850152306080850152600060a085015283810360c085015281808451928381520193019160005b8281106106e257505050500390f35b8351855286955093810193928101926001016106d3565b60405162461bcd60e51b81526020600482015260156024820152741152540dcc4c8e88155b9a5b9a5d1a585b1a5e9959605a1b6044820152606490fd5b507fa16a46d94261c7517cc8ff89f61c0ce93598e3c849801011dee649a6a557d101541561064a565b3461010b57600036600319011261010b576000805160206123028339815191525460ff8160401c1615906001600160401b03811680159081610c2c575b6001149081610c22575b159081610c19575b50610c085767ffffffffffffffff1981166001176000805160206123028339815191525581610bdb575b506107e161208d565b6107e961208d565b6107f2336114bf565b604090815191610802818461143d565b600a8352695472616465456e74727960b01b6020840152805191610826828461143d565b60018352603160f81b602084015261083c61208d565b61084461208d565b83516001600160401b038111610ac75761086c6000805160206122a283398151915254611dd8565b601f8111610b69575b50602094601f8211600114610ae857948192939495600092610add575b50508160011b916000199060031b1c1916176000805160206122a2833981519152555b82516001600160401b038111610ac7576108dd6000805160206122e283398151915254611dd8565b601f8111610a55575b506020601f82116001146109d457819293946000926109c9575b50508160011b916000199060031b1c1916176000805160206122e2833981519152555b60007fa16a46d94261c7517cc8ff89f61c0ce93598e3c849801011dee649a6a557d1005560007fa16a46d94261c7517cc8ff89f61c0ce93598e3c849801011dee649a6a557d1015561097157005b60207fc7f505b2f371ae2175ee4913f4499e1f2633a7b5936321eed1cdaeb6115181d29168ff0000000000000000196000805160206123028339815191525416600080516020612302833981519152555160018152a1005b015190508480610900565b601f198216906000805160206122e2833981519152600052806000209160005b818110610a3d57509583600195969710610a24575b505050811b016000805160206122e283398151915255610923565b015160001960f88460031b161c19169055848080610a09565b9192602060018192868b0151815501940192016109f4565b6000805160206122e28339815191526000527f5f9ce34815f8e11431c7bb75a8e6886a91478f7ffc1dbb0a98dc240fddd76b75601f830160051c81019160208410610abd575b601f0160051c01905b818110610ab157506108e6565b60008155600101610aa4565b9091508190610a9b565b634e487b7160e01b600052604160045260246000fd5b015190508580610892565b601f198216956000805160206122a2833981519152600052806000209160005b888110610b5157508360019596979810610b38575b505050811b016000805160206122a2833981519152556108b5565b015160001960f88460031b161c19169055858080610b1d565b91926020600181928685015181550194019201610b08565b6000805160206122a28339815191526000527f42ad5d3e1f2e6e70edcf6d991b8a3023d3fca8047a131592f9edb9fd9b89d57d601f830160051c81019160208410610bd1575b601f0160051c01905b818110610bc55750610875565b60008155600101610bb8565b9091508190610baf565b68ffffffffffffffffff1916680100000000000000011760008051602061230283398151915255816107d8565b63f92ee8a960e01b60005260046000fd5b905015836107ae565b303b1591506107a6565b83915061079c565b610c3d36611326565b90600091610c4d61022f8561156b565b9182845283602052604084209360405194610c6786611422565b549460ff86166005811015610e67578152602081019560018060a01b039060081c168652516005811015610e535760011901610e445760c086013590814210610e35575090610cd09291610cbe610140880161145e565b610cca60e089016113fd565b906117d3565b91516001600160a01b031691610100840135600281101561010b5780159081610e25575b8115610e05575b50610df1575b60408401359360808101358501809511610ddb577f17b91b2cf6a34f3e0cd1cd5924f43389b85d32a7bb411a7c2dbb850b0f2c43df91606091610d8b906001600160a01b0390610d509061140e565b60405163a9059cbb60e01b60208201526001600160a01b038916602482015260448082018b905281529116610d8660648361143d565b612032565b60008481526020818152604091829020805460ff1916600417905581519283526001600160a01b038716908301528101869052a2604080516001600160a01b039290921682526020820192909252f35b634e487b7160e01b600052601160045260246000fd5b9150610dff6020840161140e565b91610d01565b600191501480610e16575b85610cfb565b50610120840135811115610e10565b6101208601358310159150610cf4565b63e170cd2960e01b8152600490fd5b6313592ca160e01b8152600490fd5b634e487b7160e01b82526021600452602482fd5b634e487b7160e01b83526021600452602483fd5b3461010b5761018036600319011261010b5760006024356001600160a01b038116908181036104b457338203611028576004356001600160a01b03811691908281036110245750506064356001600160a01b0381169290838103611024575060e43563ffffffff811690818103611020575061010435600281101561102057610144359060ff82169283830361101c57610fb496610f8193506040519560208701977f2848f30e7e38df18dad512fc93cad9a56bb220d037d94f9eccba33cd17956ae1895260408801526060870152604435608087015260a086015260843560c086015260a43560e086015260c4356101008601526101208501526101408401906114b2565b61012435610160830152610180820152610164356101a08201526101a08152610fac6101c08261143d565b519020611687565b8082528160205260ff6040832054166005811015610e675761100d578082528160205260408220600160ff198254161790557f4e09303ea9c3932854b42432aa9f65348205f9681747864bf122101b353715038280a280f35b6313592ca160e01b8252600482fd5b8780fd5b8580fd5b8480fd5b636c0148fd60e01b8352600483fd5b3461010b57600036600319011261010b57611050611535565b6000805160206122c283398151915280546001600160a01b031981169091556000906001600160a01b03167f8be0079c531659141344cd1fd0a4f28419497f9722a3daafe3b4186f6b6457e08280a3005b3461010b57604036600319011261010b576110ba611313565b63ffffffff6110c7611303565b9116600052600160205260ff60406000209116600052602052602060ff604060002054166040519015158152f35b3461010b57602036600319011261010b57600435600052600060205260406000205460ff8116906040519060058310156104b85791815260089190911c6001600160a01b03166020820152604090f35b3461010b57606036600319011261010b576004356001600160401b03811161010b57611175903690600401611283565b9061117e611303565b6044359182151580930361010b57611194611535565b60ff80600094169216925b8481106111a857005b8063ffffffff6111be61059260019489876113d7565b1660005281602052604080600020600090878252602052208460ff198254161790550161119f565b3461010b57600036600319011261010b5760206040517f2848f30e7e38df18dad512fc93cad9a56bb220d037d94f9eccba33cd17956ae18152f35b3461010b5761122f366112b3565b9290611239611535565b8383036105c95760005b83811061124c57005b8061125a60019287856113d7565b3563ffffffff61126e6105928489896113d7565b16600052600460205260406000205501611243565b9181601f8401121561010b578235916001600160401b03831161010b576020808501948460051b01011161010b57565b604060031982011261010b576004356001600160401b03811161010b57816112dd91600401611283565b92909291602435906001600160401b03821161010b576112ff91600401611283565b9091565b6024359060ff8216820361010b57565b6004359063ffffffff8216820361010b57565b60031981016101a0811261010b576101801361010b57600491610184356001600160401b03811161010b578260238201121561010b578060040135926001600160401b03841161010b576024848301011161010b576024019190565b919082519283825260005b8481106113ae575050826000602080949584010152601f8019910116010190565b8060208092840101518282860101520161138d565b35906001600160a01b038216820361010b57565b91908110156113e75760051b0190565b634e487b7160e01b600052603260045260246000fd5b3563ffffffff8116810361010b5790565b356001600160a01b038116810361010b5790565b604081019081106001600160401b03821117610ac757604052565b90601f801991011681019081106001600160401b03821117610ac757604052565b3560ff8116810361010b5790565b9291926001600160401b038211610ac75760405191611495601f8201601f19166020018461143d565b82948184528183011161010b578281602093846000960137010152565b9060028210156104b85752565b6001600160a01b0316801561151f576000805160206122c283398151915280546001600160a01b0319811683179091556001600160a01b03167f8be0079c531659141344cd1fd0a4f28419497f9722a3daafe3b4186f6b6457e0600080a3565b631e4fbdf760e01b600052600060045260246000fd5b6000805160206122c2833981519152546001600160a01b0316330361155657565b63118cdaa760e01b6000523360045260246000fd5b6115748161140e565b906115816020820161140e565b9061158e6060820161140e565b9061159b60e082016113fd565b9161010082013590600282101561010b5761165760ff9263ffffffff610160966115c8610140880161145e565b946040519960208b019b7f2848f30e7e38df18dad512fc93cad9a56bb220d037d94f9eccba33cd17956ae18d5260018060a01b031660408c015260018060a01b031660608b0152604088013560808b015260018060a01b031660a08a0152608087013560c08a015260a087013560e08a015260c08701356101008a0152166101208801526101408701906114b2565b610120830135848601521661018084015201356101a08201526101a081526116816101c08261143d565b51902090565b6042906116926121f2565b61169a61225c565b6040519060208201927f8b73c3c69bb8fe3d512ecc4cf759cc79239f7b179b0ffacaa9a75d522b39400f8452604083015260608201524660808201523060a082015260a081526116eb60c08261143d565b519020906040519161190160f01b8352600283015260228201522090565b8051156113e75760200190565b919082608091031261010b57604051608081018181106001600160401b03821117610ac757604052809280518060070b810361010b57825260208101516001600160401b038116810361010b57602083015260408101518060030b810361010b576040830152606090810151910152565b519069ffffffffffffffffffff8216820361010b57565b908160a091031261010b576117b281611787565b916020820151916040810151916117d0608060608401519301611787565b90565b9193929160ff16600181036119d6575063ffffffff16600052600260205260208160018060a01b0360406000205416938101031261010b57359169ffffffffffffffffffff831680930361010b57604051639a6fc8f560e01b8152600481018490529260a084602481865afa80156119975760009485916119ae575b508281151591826119a3575b5050156119465760010169ffffffffffffffffffff8111610ddb5769ffffffffffffffffffff602460a0926040519586938492639a6fc8f560e01b84521660048301525afa91821561199757600092611961575b508115918215611957575b5050156119465760006118cd600a612024565b8281029290828212600160ff1b82141661191e57818405149015171561190a578082126118f8575090565b602491635467221960e11b8252600452fd5b634e487b7160e01b81526011600452602490fd5b634e487b7160e01b83526011600452602483fd5b634e487b7160e01b82526011600452602482fd5b630417e54960e11b60005260046000fd5b11905038806118ba565b61198491925060a03d60a011611990575b61197c818361143d565b81019061179e565b509250505090386118af565b503d611972565b6040513d6000823e3d90fd5b11159050823861185b565b90506119ca91945060a03d60a0116119905761197c818361143d565b5095925050933861184f565b91949391600203611dc75763ffffffff9094939416600052600460205260406000205490604092835194611a0a858761143d565b60018652601f1985019160005b838110611db4575090611a2b91369161146c565b611a3486611709565b52611a3e85611709565b50835190611a4c858361143d565b60018252602082019036823783611a6283611709565b526003546001600160a01b031692611a82611a7c82611fda565b91611fda565b908651978894634716e9c560e01b86526084860160806004880152825180915260a4870190602060a48260051b8a01019401916000905b828210611d7e5750505050602090600319878403016024880152519182815201939060005b818110611d6557505050600094926001600160401b038593818594166044850152166064830152039134905af1928315611d5a57600093611c42575b506001835103611c3157611b2d83611709565b515103611c31576020611b5081611b4385611709565b5101515160070b93611709565b510151015160030b600003808060030b03610ddb576000919063ffffffff166012811015611bd05763ffffffff611b89611b8f9261200d565b16612024565b8181029190838212600160ff1b821416611bbc57818305149015171561193257905b8082126118f8575090565b634e487b7160e01b84526011600452602484fd5b6012811115611c2a576011190163ffffffff811161191e5763ffffffff611bf79116612024565b908115611c1657600160ff1b811460001983141661191e570590611bb1565b634e487b7160e01b83526012600452602483fd5b5090611bb1565b63a9a05cbf60e01b60005260046000fd5b90923d8082843e611c53818461143d565b820191602081840312611d56578051906001600160401b0382116104b4570182601f82011215611d56578051916001600160401b038311611d425760208360051b0193611ca28651958661143d565b83855260206101208187019502840101928184116104b457602001935b838510611cd25750505050509138611b1a565b610120858303126104b4578651606081018181106001600160401b03821117611d2e5788528551815261012091602091611d0e85898501611716565b83820152611d1f8560a08a01611716565b8a820152815201940193611cbf565b634e487b7160e01b85526041600452602485fd5b634e487b7160e01b81526041600452602490fd5b5080fd5b82513d6000823e3d90fd5b825186528a965060209586019590920191600101611ade565b9193946020611da0819260019496999a9b9c60a3199082030186528951611382565b9701920192018c9897969594939192611ab9565b60606020828a0181019190915201611a17565b6332425d4f60e21b60005260046000fd5b90600182811c92168015611e08575b6020831014611df257565b634e487b7160e01b600052602260045260246000fd5b91607f1691611de7565b604051906000826000805160206122a28339815191525491611e3383611dd8565b8083529260018116908115611ec65750600114611e59575b611e579250038361143d565b565b506000805160206122a2833981519152600090815290917f42ad5d3e1f2e6e70edcf6d991b8a3023d3fca8047a131592f9edb9fd9b89d57d5b818310611eaa575050906020611e5792820101611e4b565b6020919350806001915483858901015201910190918492611e92565b60209250611e5794915060ff191682840152151560051b820101611e4b565b604051906000826000805160206122e28339815191525491611f0683611dd8565b8083529260018116908115611ec65750600114611f2957611e579250038361143d565b506000805160206122e2833981519152600090815290917f5f9ce34815f8e11431c7bb75a8e6886a91478f7ffc1dbb0a98dc240fddd76b755b818310611f7a575050906020611e5792820101611e4b565b6020919350806001915483858901015201910190918492611f62565b6040516323b872dd60e01b60208201526001600160a01b039283166024820152929091166044830152606480830193909352918152611e5791610d8660848361143d565b6001600160401b038111611ff4576001600160401b031690565b6306dfcc6560e41b600052604060045260245260446000fd5b63ffffffff166012039063ffffffff8211610ddb57565b604d8111610ddb57600a0a90565b906000602091828151910182855af115611997576000513d61208457506001600160a01b0381163b155b6120635750565b635274afe760e01b60009081526001600160a01b0391909116600452602490fd5b6001141561205c565b60ff6000805160206123028339815191525460401c16156120aa57565b631afcd79f60e31b60005260046000fd5b81519190604183036120ec576120e592506020820151906060604084015193015160001a90612169565b9192909190565b505060009160029190565b91909160048110156104b8578061210d57509050565b6000600182036121285763f645eedf60e01b60005260046000fd5b5060028103612146578263fce698f760e01b60005260045260246000fd5b9091600360009214612156575050565b6335e2f38360e21b825260045260249150fd5b91907f7fffffffffffffffffffffffffffffff5d576e7357a4501ddfe92f46681b20a084116121e6579160209360809260ff60009560405194855216868401526040830152606082015282805260015afa15611997576000516001600160a01b038116156121da5790600090600090565b50600090600190600090565b50505060009160039190565b6121fa611e12565b805190811561220a576020012090565b50507fa16a46d94261c7517cc8ff89f61c0ce93598e3c849801011dee649a6a557d1005480156122375790565b507fc5d2460186f7233c927e7db2dcc703c0e500b653ca82273b7bfad8045d85a47090565b612264611ee5565b8051908115612274576020012090565b50507fa16a46d94261c7517cc8ff89f61c0ce93598e3c849801011dee649a6a557d101548015612237579056fea16a46d94261c7517cc8ff89f61c0ce93598e3c849801011dee649a6a557d1029016d09d72d40fdae2fd8ceac6b6234c7706214fd39c1cd1e609a0528c199300a16a46d94261c7517cc8ff89f61c0ce93598e3c849801011dee649a6a557d103f0c57e16840df040f15088dc2f81fe391c3923bec73e23a9662efc9c229c6a00a26469706673582212209bd21702abfa65e09e937a72d39f20f4da2b611969af9a1306ec78eae6713dfb64736f6c634300081b0033",
  "linkReferences": {},
  "deployedLinkReferences": {}
}